:100000000C942A000C9447000C9447000C94470071
:100010000C9447000C9447000C9447000C94470044
:100020000C9447000C9447000C9447000C94470034
:100030000C9447000C9447000C9447000C94470024
:100040000C9447000C9447000C9447000C94470014
:100050000C94470011241FBECFE5D8E0DEBFCDBF12
:1000600012E0A0E6B0E0ECE4FCE002C005900D92E6
:10007000AA30B107D9F712E0AAE0B2E001C01D92A0
:10008000AB31B107E1F70E9449000C9424060C94AF
:1000900000000E94FC010E94C405CEE7D0E00AE8FF
:1000A00010E00F2EFCEDCF2EF0E0DF2EF02D0F2E06
:1000B000FAEEEF2EF0E0FF2EF02D81E00E94F50128
:1000C00082E062E00E942F0280E690E00E9420021F
:1000D00083E065E00E942F0282E790E00E94200208
:1000E0008FE39DE0A3E081509040A040E1F700C085
:1000F00000000F2EFAE9AF2EF0E0BF2EF02D0F2EEC
:10010000FAEA8F2EF0E09F2EF02D0F2EF3EB4F2EFC
:10011000F0E05F2EF02D0F2EF8EB2F2EF0E03F2EAB
:10012000F02D0F2EF8EC6F2EF0E07F2EF02D80E2F8
:1001300090E00E9412018F3F81F50E947B022DC04A
:1001400081E00E94F50182E065E00E942F02CE016D
:100150000E94200283E063E00E942F02C8010E94F7
:1001600020028FE79AE1A6E081509040A040E1F79D
:1001700000C000000E945A01809319028091190268
:10018000803321F4C7010E947A0307C080911902CD
:10019000813319F4C6010E947A0380910A028823F0
:1001A00079F281E00E94F50181E063E00E942F0274
:1001B000C5010E94200282E063E00E942F02C40178
:1001C0000E94200280910A02813099F4C2010E94AB
:1001D000200283E063E00E942F02C1010E942002FE
:1001E00080910A02813029F484E064E00E942F02A9
:1001F00004C083E064E00E942F02C3010E94200239
:100200000E945A0180931902809119028A3229F4BE
:1002100010920A02A898A99850CF809119020E94C2
:10022000170585CFE199FECF9FBB8EBBE09A8DB3BA
:100230000895DC01E199FECF4115510589F0E62FC3
:10024000F72F20E030E0C9018A0F9B1F9FBB8EBBB8
:10025000E09A8DB381932F5F3F4F2417350799F7AD
:100260000895E199FECF9FBB8EBBE09A8DB38617B0
:1002700019F06DBBE29AE19A0895DC014115510530
:10028000C1F0E62FF72F20E030E0E199FECFC90161
:100290008A0F9B1F9FBB8EBBE09A9DB381919817DD
:1002A00019F08DBBE29AE19A2F5F3F4F2417350773
:1002B00061F7089540EF3FEF2FEE9FED6FEB5FE7A3
:1002C00041BB32BB82B38F7082BB000080B38F70A2
:1002D000809315028F30B1F7E7E8F3E13197F1F73A
:1002E00000C0000080B38F70809315028F30A1F39F
:1002F000EFE0F7E23197F1F700C0000080B38F70B4
:10030000809315028F3041F322BB000080B38F70C1
:10031000809315028F3019F01092160224C092BB00
:10032000000080B38F70809315028F3021F081E040
:100330008093160218C062BB000080B38F70809358
:1003400015028F3021F082E0809316020CC052BB60
:10035000000080B38F70809315028F3009F4B0CF06
:1003600083E080931602809115028E3059F4E0915B
:100370001602F0E0EE0FFF1FEE0FFF1FEE50FF4FD3
:10038000808108958D3059F4E0911602F0E0EE0F6F
:10039000FF1FEE0FFF1FEE50FF4F818108958B303E
:1003A00059F4E0911602F0E0EE0FFF1FEE0FFF1F71
:1003B000EE50FF4F82810895E0911602F0E0EE0FBB
:1003C000FF1FEE0FFF1FEE50FF4F83810895C19A6C
:1003D0000000C19881E28A95F1F7000083EC99E072
:1003E0000197F1F700C00000089598B3937F98BB80
:1003F0008BBB0E94E70108958FEF8ABB87B38E60A5
:1004000087BB87E893E10197F1F700C0000088E31C
:100410000E94F5018EE00E94F50181E00E94F50145
:1004200083EF91E00197F1F700C0000086E00E94A1
:10043000F5010895C298C39A8BBB0E94E701089505
:10044000CF93DF93EC018881882331F021960E94BD
:100450001A0289918823D9F7DF91CF9108956150CD
:10046000E82FF0E0EF5FFE4F8081860F0E94F501DC
:100470000895CF92DF92EF92FF920F931F93CF9345
:10048000DF93EC016B0116161706B4F48C01060F0E
:10049000171F0F2EFBE0EF2EF2E0FF2EF02D8991BB
:1004A00090E0B7014AE050E00E94DF05C7010E94DA
:1004B0002002C017D10799F7C4E1D0E0CC19DD09BB
:1004C0000AF42196D595C79564961C161D0654F41A
:1004D00000E010E08CE10E94F5010F5F1F4F0C1748
:1004E0001D07C4F3DF91CF911F910F91FF90EF9003
:1004F000DF90CF90089581E00E94F50182E061E0F5
:100500000E942F0286E091E00E94200281E00E947A
:10051000F50182E061E00E942F028BE191E00E94F0
:10052000200283E061E00E942F028AE291E00E94B3
:10053000200280910F02843008F067C00E945A01A7
:100540008093190280911902E0910F02F0E0EF5EB2
:10055000FD4F80538083809119020E941A0287EA1E
:1005600091E60197F1F700C0000080910F028F5FC4
:1005700080930F02843010F381E290E061E172E039
:1005800044E050E00E943D0181E00E94F50182E0DC
:1005900061E00E942F0286E391E00E94200283E046
:1005A00061E00E942F0285E491E00E9420021092F7
:1005B0000F020E945A018093190280911902E09162
:1005C0000F02F0E0EF5EFD4F8053808380911902AF
:1005D0000E941A0287EA91E60197F1F700C0000035
:1005E00080910F028F5F80930F02843010F385E2B9
:1005F00090E061E172E044E050E00E943D0180E261
:1006000090E060E00E943101089581E290E061E1B4
:1006100072E044E050E00E943D0181E00E94F5015B
:1006200082E061E00E942F0286E391E00E942002B6
:1006300083E061E00E942F0285E491E00E942002A5
:1006400010920F02B6CFDF92EF92FF920F931F939B
:10065000CF93DF93E82EC1E1D2E01CE00E945A0163
:1006600080931902809119028993809119020E9446
:100670001A028FE59AEEA0E081509040A040E1F789
:1006800000C0000083E0612F0E942F028AE20E94D6
:100690001A02A7EAB1E61197F1F700C000001F5F48
:1006A0001031E1F610E004E0FF24DD24D39401C012
:1006B0000D2DC12FD0E0C7018C0F9D1F0E9412018C
:1006C00090E0CF5EDD4F288130E02053304082172C
:1006D000930731F41F5F133059F3143050F301C006
:1006E00000E0802FDF91CF911F910F91FF90EF904D
:1006F000DF9008958F929F92AF92BF92DF92EF9218
:10070000FF920F931F93CF93DF93EC01DD2401E55C
:1007100011E00F2EF7E5EF2EF1E0FF2EF02D0F2E5A
:10072000F3E6AF2EF1E0BF2EF02D0F2EFDE68F2E5B
:10073000F1E09F2EF02D81E00E94F50182E065E05E
:100740000E942F02888199810E942002C8010E9484
:10075000200283E061E00E942F02C7010E94200274
:1007600087EA91E60197F1F700C000008B810E94B3
:10077000230390E081309105C9F48A8180930A02B5
:1007800044B381E090E09C010F8002C0220F331F30
:100790000A94E2F7242B24BB25B30F8002C0880FF4
:1007A000991F0A94E2F7822B85BB46C0009719F681
:1007B000D39481E00E94F50182E064E00E942F0260
:1007C000C5010E94200283E064E00E942F02C40160
:1007D0000E942002AFE4B3EC1197F1F700C00000D3
:1007E000B2E0BD1508F0A7CFA29AAA9A81E00E94B4
:1007F000F50182E064E00E942F0287E791E00E9409
:10080000200283E064E00E942F0284E891E00E94CD
:1008100020028FEB97E2A9E081509040A040E1F7E1
:1008200000C00000AA988FEB9CE5A5E181509040A4
:10083000A040E1F700C00000DF91CF911F910F9120
:10084000FF90EF90DF90BF90AF909F908F900895B2
:10085000CF93DF93D82FC62F81E00E94F50182E06D
:1008600061E00E942F02C43349F480E991E00E94C4
:10087000200284E991E00E94200216C0C53349F4A9
:100880008CE991E00E94200284E991E00E9420021C
:100890000BC086EA91E00E9420028C2F0E941A026F
:1008A00084E991E00E9420028D2F0E94CE0587EA04
:1008B00091E60197F1F700C000008FEF0E94CE058E
:1008C000813029F48CEA91E00E94200206C088233E
:1008D00021F48FEA91E00E94200283E061E00E940F
:1008E0002F0283EB91E00E942002C53341F484E0A3
:1008F00061E00E942F0287EC91E00E942002DF91CC
:10090000CF910895813321F4862F0E94CE0508955A
:1009100080911902823321F4862F8F5F0E94CE05C9
:10092000089581E00E94F50187E10E94CE0587EAE3
:1009300091E60197F1F700C000008FEF0E94CE050D
:1009400080931A026AE00E94D30580931702909365
:10095000180282E061E00E942F0286ED91E00E9481
:10096000200280911702805D0E941A028091180275
:10097000805D0E941A0210921A02109217021092C1
:10098000180283E061E00E942F0289EE91E00E944C
:1009900020020E945A01809319028091190280530B
:1009A00080931702809119020E941A02AFE4B3ECFF
:1009B0001197F1F700C000000E945A0180931902BC
:1009C00080911902805380931802809119020E942D
:1009D0001A028FE493EC0197F1F700C0000080E465
:1009E0000E94CE05AFE4B3EC1197F1F700C0000010
:1009F00080911702880F982F990F990F890F909166
:100A00001802890F80931A020E94CE0581E00E948D
:100A1000F50189EF91E00E9420028FE996E8A1E0BC
:100A200081509040A040E1F700C00000089583335A
:100A3000A1F1843330F4813351F0823309F069C07D
:100A400019C08433E1F1853309F063C04AC081E104
:100A500061E30E9428040E945A0180931902809148
:100A60001902803309F455C08091190261E20E9495
:100A70008204089582E162E30E9428040E945A01E0
:100A80008093190280911902803309F442C0809149
:100A9000190263E20E948204089583E163E30E94E5
:100AA00028040E945A018093190280911902803310
:100AB00081F18091190265E20E948204089585E126
:100AC00064E30E9428040E945A01809319028091D5
:100AD00019028033F1F08091190267E20E948204CA
:100AE000089586E165E30E9428040E945A018093DC
:100AF000190280911902803361F0809119028333C9
:100B000019F40E94910408958091190269E20E94EB
:100B100082040895FC01DB01308181E090E0BC019A
:100B200002C0660F771F4A95E2F7AB01862F962F1A
:100B3000932B9083222339F0213041F48C914095FE
:100B400048234C9308959C91892B8C930895FC0124
:100B5000DB01308181E090E0BC0102C0660F771FAD
:100B60004A95E2F7AB01862F8095982F93239083C7
:100B7000223031F0233039F48C91482B4C93089576
:100B80009C9189238C93089587B3806B87BB8DB12B
:100B900081658DB90895BE9A6E9A08958FB9779B35
:100BA000FECF8FB10895991B79E004C0991F961765
:100BB00008F0961B881F7A95C9F780950895FB0168
:100BC0009F01E8944230C4F04532B4F44A3029F42D
:100BD00097FB1EF4909581959F4F642F77270E9475
:100BE0001006805D8A330CF0895D8193CB010097FC
:100BF000A1F716F45DE251931082C9010C9400062E
:100C0000DC01FC01672F71917723E1F7329704C073
:100C10007C916D9370836291AE17BF07C8F30895FE
:100C2000AA1BBB1B51E107C0AA1FBB1FA617B70712
:100C300010F0A61BB70B881F991F5A95A9F780952E
:0C0C40009095BC01CD010895F894FFCF01
:100C4C0077656C6C636F6D6520746F20736D61726A
:100C5C007400686F6D652073797374656D007365CE
:100C6C006C656374206D6F646500303A4F776E6508
:100C7C007220313A477565737400313A524F4F4DBB
:100C8C003120323A524F4F4D3200333A524F4F4D82
:100C9C00332000343A545600353A4149525F436F81
:100CAC006E646974696F6E00455849542050524502
:100CBC0053533A2A2000475545535400D600022579
:100CCC00003500014F574E455200E400012100351C
:100CDC0000003738392F3435362A3132332D203055
:100CEC003D2B80C094D46C6F67696E20666F722048
:100CFC0066697273742074696D6500536574204164
:100D0C00646D696E20506173730041646D696E206F
:100D1C00506173733A005365742047756573742082
:100D2C005061737300677565737420506173733A07
:100D3C0000204D4F444500456E7465722050617320
:100D4C00733A00526F6E672050617373005452599E
:100D5C0020416761696E00626C6F636B6564206D26
:100D6C006F646500776169742032302073656300AD
:100D7C0054563A002053746174653A004149525FED
:100D8C00434F4E443A00524F4F4D3A004F4E004F96
:100D9C004646004F4E3A312020204F46463A3220EC
:100DAC00205245543A3000636F6E74726F6C20742D
:100DBC00656D703A33006F6C642072657175697281
:100DCC0065642074656D703A00656E746572206E92
:100DDC0065772074656D703A0054656D706572614D
:0A0DEC00747572652053656E740083
:00000001FF
