:100000000C942A000C9447000C9447000C94470071
:100010000C9447000C9447000C9447000C94470044
:100020000C9447000C9447000C9447000C94470034
:100030000C9447000C9447000C9447000C94470024
:100040000C9447000C9447000C9447000C94470014
:100050000C94470011241FBECFE5D8E0DEBFCDBF12
:1000600011E0A0E6B0E0E8E3FBE002C005900D92ED
:10007000A63EB107D9F711E0A6EEB1E001C01D928E
:10008000A43FB107E1F70E9449000C949A050C9433
:1000900000000E94D9010E94460581E00E94D20121
:1000A00080E690E00E94FD018FE996E8A1E0815092
:1000B0009040A040E1F700C0000082E063E00E94B1
:1000C0000C0282E790E00E94FD01CEE7D0E009E853
:1000D00010E00F2EFDECCF2EF0E0DF2EF02D0F2ED6
:1000E000FBEDEF2EF0E0FF2EF02D0F2EF9E9AF2EF5
:1000F000F0E0BF2EF02D0F2EF9EA8F2EF0E09F2EAC
:10010000F02D0F2EF2EB6F2EF0E07F2EF02D0F2E44
:10011000F7EB4F2EF0E05F2EF02D80E290E00E9492
:10012000EF008F3F81F50E9458022DC081E00E94B0
:10013000D20182E061E00E940C02CE010E94FD012A
:1001400083E061E00E940C02C8010E94FD018FE77C
:100150009AE1A6E081509040A040E1F700C0000085
:100160000E9437018093F3018091F301803321F4E1
:10017000C7010E944E0307C08091F301813319F437
:10018000C6010E944E038091E601882379F281E046
:100190000E94D20181E061E00E940C02C5010E9430
:1001A000FD0182E061E00E940C02C4010E94FD0199
:1001B0008091E601813051F4C3010E94FD0183E08A
:1001C00063E00E940C02C2010E94FD010E943701FF
:1001D0008093F3018091F3010E9499049ECFE199ED
:1001E000FECF9FBB8EBBE09A8DB30895DC01E199F1
:1001F000FECF4115510589F0E62FF72F20E030E0C2
:10020000C9018A0F9B1F9FBB8EBBE09A8DB3819360
:100210002F5F3F4F2417350799F70895E199FECFD7
:100220009FBB8EBBE09A8DB3861719F06DBBE29A27
:10023000E19A0895DC0141155105C1F0E62FF72F31
:1002400020E030E0E199FECFC9018A0F9B1F9FBBE0
:100250008EBBE09A9DB38191981719F08DBBE29AFD
:10026000E19A2F5F3F4F2417350761F7089540EF5C
:100270003FEF2FEE9FED6FEB5FE741BB32BB82B3E9
:100280008F7082BB000080B38F708093F1018F303C
:10029000B1F7E7E8F3E13197F1F700C0000080B370
:1002A0008F708093F1018F30A1F3EFE0F7E2319787
:1002B000F1F700C0000080B38F708093F1018F30A0
:1002C00041F322BB000080B38F708093F1018F3027
:1002D00019F01092F20124C092BB000080B38F701D
:1002E0008093F1018F3021F081E08093F20118C0FA
:1002F00062BB000080B38F708093F1018F3021F0DA
:1003000082E08093F2010CC052BB000080B38F707A
:100310008093F1018F3009F4B0CF83E08093F20134
:100320008091F1018E3059F4E091F201F0E0EE0F8E
:10033000FF1FEE0FFF1FED51FF4F808108958D309D
:1003400059F4E091F201F0E0EE0FFF1FEE0FFF1FF6
:10035000ED51FF4F818108958B3059F4E091F20106
:10036000F0E0EE0FFF1FEE0FFF1FED51FF4F8281F8
:100370000895E091F201F0E0EE0FFF1FEE0FFF1F76
:10038000ED51FF4F83810895C19A0000C19881E229
:100390008A95F1F7000083EC99E00197F1F700C02E
:1003A0000000089598B3937F98BB8BBB0E94C40153
:1003B00008958FEF8ABB87B38E6087BB87E893E190
:1003C0000197F1F700C0000088E30E94D2018EE09F
:1003D0000E94D20181E00E94D20183EF91E0019757
:1003E000F1F700C0000086E00E94D2010895C29893
:1003F000C39A8BBB0E94C4010895CF93DF93EC0195
:100400008881882331F021960E94F7018991882301
:10041000D9F7DF91CF9108956150E82FF0E0EE50C9
:10042000FF4F8081860F0E94D2010895CF92DF9204
:10043000EF92FF920F931F93CF93DF93EC016B0129
:1004400016161706B4F48C01060F171F0F2EF7EEC1
:10045000EF2EF1E0FF2EF02D899190E0B7014AE0F8
:1004600050E00E945505C7010E94FD01C017D10749
:1004700099F7C4E1D0E0CC19DD090AF42196D595AD
:10048000C79564961C161D0654F400E010E08CE13C
:100490000E94D2010F5F1F4F0C171D07C4F3DF919D
:1004A000CF911F910F91FF90EF90DF90CF90089523
:1004B00081E00E94D20182E061E00E940C0287EF9D
:1004C00090E00E94FD0181E00E94D20182E061E0A3
:1004D0000E940C028CE091E00E94FD0183E061E04B
:1004E0000E940C028BE191E00E94FD018091EB01E2
:1004F000843008F061C00E9437018093F30180913D
:10050000F301E091EB01F0E0E351FE4F8053808373
:100510008091F3010E94F7018091EB018F5F80933E
:10052000EB01843040F381E290E06DEE71E044E055
:1005300050E00E941A0181E00E94D20182E061E055
:100540000E940C0287E291E00E94FD0183E061E0DD
:100550000E940C0286E391E00E94FD011092EB01E3
:100560000E9437018093F3018091F301E091EB0148
:10057000F0E0E351FE4F805380838091F3010E94AD
:10058000F70187EA91E60197F1F700C0000080913A
:10059000EB018F5F8093EB01843010F385E290E0F4
:1005A0006DEE71E044E050E00E941A0180E290E0BC
:1005B00060E00E940E01089581E290E06DEE71E02E
:1005C00044E050E00E941A0181E00E94D20182E0E2
:1005D00061E00E940C0287E291E00E94FD0183E04D
:1005E00061E00E940C0286E391E00E94FD011092FE
:1005F000EB01B6CFDF92EF92FF920F931F93CF9351
:10060000DF93E82ECDEED1E01CE00E94370180930D
:10061000F3018091F30189938091F3010E94F70126
:1006200087EA91E60197F1F700C0000083E0612FAF
:100630000E940C028AE20E94F70187EA91E6019784
:10064000F1F700C000001F5F1031F9F610E004E080
:10065000FF24DD24D39401C00D2DC12FD0E0C701AC
:100660008C0F9D1F0E94EF0090E0C351DE4F288148
:1006700030E0205330408217930731F41F5F13306E
:1006800059F3143050F301C000E0802FDF91CF9177
:100690001F910F91FF90EF90DF900895EF92FF92DE
:1006A0000F931F93CF93DF93EC0102E411E00F2E21
:1006B000F8E4EF2EF1E0FF2EF02D81E00E94D20150
:1006C00082E061E00E940C02888199810E94FD0114
:1006D000C8010E94FD0183E061E00E940C02C70195
:1006E0000E94FD0187EA91E60197F1F700C0000042
:1006F0008B810E94FA0290E081309105C9F48A81D1
:100700008093E60144B381E090E09C010F8002C039
:10071000220F331F0A94E2F7242B24BB25B30F804A
:1007200002C0880F991F0A94E2F7822B85BB3AC05A
:10073000009719F681E00E94D20182E064E00E94F5
:100740000C0284E591E00E94FD0183E064E00E94D8
:100750000C028EE591E00E94FD01AFE4B3EC11972D
:10076000F1F700C00000A29AAA9A81E00E94D2018B
:1007700082E064E00E940C0288E691E00E94FD01A4
:1007800083E064E00E940C0285E791E00E94FD0195
:100790008FE397E7ABE181509040A040E1F700C0C4
:1007A0000000AA98DF91CF911F910F91FF90EF90D9
:1007B0000895CF93DF93D82FC62F81E00E94D201F6
:1007C00082E061E00E940C02C43349F481E891E0C8
:1007D0000E94FD0185E891E00E94FD010BC0C53338
:1007E00049F48DE891E00E94FD0185E891E00E94C6
:1007F000FD010BC087E991E00E94FD018C2F0E9452
:10080000F70185E891E00E94FD018D2F0E945005BF
:1008100087EA91E60197F1F700C000008FEF0E9490
:100820005005813029F48DE991E00E94FD010BC053
:10083000882329F480EA91E00E94FD0104C084EA43
:1008400091E00E94FD0183E061E00E940C0285EAD4
:1008500091E00E94FD01C53341F484E061E00E9413
:100860000C0289EB91E00E94FD01DF91CF91089588
:10087000813321F4862F0E94500508958091F30161
:10088000823321F4862F8F5F0E9450050895CF9305
:10089000DF9381E00E94D20182E061E00E940C02BD
:1008A00088EC91E00E94FD010E9437018093F301E2
:1008B000D091F3018091F3010E94F7018FE493EC52
:1008C0000197F1F700C000000E9437018093F30107
:1008D000C091F3018091F3010E94F701AFE4B3EC02
:1008E0001197F1F700C0000080E40E9450058FE4EA
:1008F00093EC0197F1F700C00000DD0F8D2F880FFA
:10090000880FD80F8D2F8C0F0E94500581E00E9418
:10091000D20184ED91E00E94FD018FE996E8A1E00B
:1009200081509040A040E1F700C00000DF91CF91DE
:1009300008958333A1F1843330F4813351F082334D
:1009400009F069C019C08433E1F1853309F063C04F
:100950004AC081E161E30E94D9030E94370180937C
:10096000F3018091F301803309F455C08091F301C4
:1009700061E20E943804089582E162E30E94D90393
:100980000E9437018093F3018091F301803309F4D1
:1009900042C08091F30163E20E943804089583E12C
:1009A00063E30E94D9030E9437018093F301809191
:1009B000F301803381F18091F30165E20E943804F4
:1009C000089585E164E30E94D9030E943701809372
:1009D000F3018091F3018033F1F08091F30167E23C
:1009E0000E943804089586E065E30E94D9030E94BE
:1009F00037018093F3018091F301803361F080919E
:100A0000F301833319F40E94470408958091F301A0
:100A100069E20E9438040895FC01DB01308181E025
:100A200090E0BC0102C0660F771F4A95E2F7AB0168
:100A3000862F962F932B9083222339F0213041F477
:100A40008C91409548234C9308959C91892B8C93CD
:100A50000895FC01DB01308181E090E0BC0102C01F
:100A6000660F771F4A95E2F7AB01862F8095982F86
:100A700093239083223031F0233039F48C91482B2A
:100A80004C9308959C9189238C93089587B3806B30
:100A900087BB8DB181658DB90895BE9A6E9A089510
:100AA0008FB9779BFECF8FB10895FB019F01E8942A
:100AB0004230C4F04532B4F44A3029F497FB1EF4B6
:100AC000909581959F4F642F77270E948605805DC2
:100AD0008A330CF0895D8193CB010097A1F716F45E
:100AE0005DE251931082C9010C947605DC01FC0192
:100AF000672F71917723E1F7329704C07C916D9352
:100B000070836291AE17BF07C8F30895AA1BBB1B81
:100B100051E107C0AA1FBB1FA617B70710F0A61BFD
:100B2000B70B881F991F5A95A9F780959095BC011E
:080B3000CD010895F894FFCFF8
:100B380077656C6C636F6D6520746F20736D61727F
:100B48007400686F6D652073797374656D007365E3
:100B58006C6563206D6F646500303A4F776E65721F
:100B680020313A477565737400313A524F4F4D3111
:100B780020323A524F4F4D3200333A524F4F4D3395
:100B88002000343A545600353A4149525F436F6E5B
:100B9800646974696F6E00475545535400C7000275
:100BA80025003500014F574E455200D50001210060
:100BB8003500003738392F3435362A3132332D2075
:100BC800303D2B80C094D46C6F67696E20666F725D
:100BD8002066697273742074696D650053657420AA
:100BE80041646D696E20506173730041646D696E74
:100BF80020506173733A00536574204775657374A8
:100C08002050617373006775657374205061737346
:100C18003A00204D4F444500456E7465722050617E
:100C280073733A00526F6E672050617373005452A9
:100C38005920416761696E00626C6F636B6564205F
:100C48006D6F646500776169742032302073656365
:100C58000054563A002053746174653A0041495271
:100C68005F434F4E443A00524F4F4D3A004F4E00AB
:100C78004F464600004F4E3A312020204F46463A14
:100C88003220205245543A3000636F6E74726F6C94
:100C98002074656D703A3300656E746572207465F2
:100CA8006D703A0054656D70657261747572652077
:060CB80053656E7400009C
:00000001FF
