:100000000C942A000C9447000C9447000C94470071
:100010000C9447000C9447000C9447000C94470044
:100020000C9447000C9447000C9447000C94470034
:100030000C9447000C9447000C9447000C94470024
:100040000C9447000C9447000C9447000C94470014
:100050000C94470011241FBECFE5D8E0DEBFCDBF12
:1000600011E0A0E6B0E0E4E9F9E002C005900D92ED
:10007000A63BB107D9F711E0A6EBB1E001C01D9294
:10008000A73CB107E1F70E9449000C94C8040C9406
:1000900000000E94A2010E94740480E690E00E9489
:1000A000C6018FE996E8A1E081509040A040E1F7B9
:1000B00000C0000082E063E00E94D50182E790E08A
:1000C0000E94C60180E290E00E94B8008F3F11F4C8
:1000D0000E94210281E00E949B0182E061E00E9477
:1000E000D5018EE790E00E94C60183E061E00E94A6
:1000F000D50189E890E00E94C6018FE79AE1A6E069
:1001000081509040A040E1F700C000000E94000133
:100110008093C6018091C6010E940C0381E00E9479
:100120009B0181E061E00E94D50189E990E00E9495
:10013000C60182E061E00E94D50189EA90E00E9458
:10014000C6018091C201813041F483E061E00E94E8
:10015000D50189EB90E00E94C6010E9400018093C6
:10016000C6018091C6010E94E40380E090E00895FA
:10017000E199FECF9FBB8EBBE09A8DB30895DC0161
:10018000E199FECF4115510589F0E62FF72F20E0C8
:1001900030E0C9018A0F9B1F9FBB8EBBE09A8DB3D5
:1001A00081932F5F3F4F2417350799F70895E19901
:1001B000FECF9FBB8EBBE09A8DB3861719F06DBB47
:1001C000E29AE19A0895DC0141155105C1F0E62F4C
:1001D000F72F20E030E0E199FECFC9018A0F9B1F85
:1001E0009FBB8EBBE09A9DB38191981719F08DBB90
:1001F000E29AE19A2F5F3F4F2417350761F7089580
:1002000040EF3FEF2FEE9FED6FEB5FE741BB32BB5F
:1002100082B38F7082BB000080B38F708093C40163
:100220008F30B1F7E7E8F3E13197F1F700C0000054
:1002300080B38F708093C4018F30A1F3EFE0F7E2B9
:100240003197F1F700C0000080B38F708093C40134
:100250008F3041F322BB000080B38F708093C401C4
:100260008F3019F01092C50124C092BB000080B3FA
:100270008F708093C4018F3021F081E08093C5019D
:1002800018C062BB000080B38F708093C4018F30B0
:1002900021F082E08093C5010CC052BB000080B306
:1002A0008F708093C4018F3009F4B0CF83E08093C6
:1002B000C5018091C4018E3059F4E091C501F0E090
:1002C000EE0FFF1FEE0FFF1FE253FF4F80810895D7
:1002D0008D3059F4E091C501F0E0EE0FFF1FEE0FF5
:1002E000FF1FE253FF4F818108958B3059F4E09155
:1002F000C501F0E0EE0FFF1FEE0FFF1FE253FF4FAF
:1003000082810895E091C501F0E0EE0FFF1FEE0F2E
:10031000FF1FE253FF4F83810895C19A0000C198E7
:1003200081E28A95F1F7000083ED90E30197F1F700
:1003300000C00000089598B3937F98BB8BBB0E94C8
:100340008D0108958FEF8ABB87B38E6087BB87E8E6
:1003500093E10197F1F700C0000088E30E949B0140
:100360008EE00E949B0181E00E949B0183EF91E05F
:100370000197F1F700C0000086E00E949B010895FC
:10038000C298C39A8BBB0E948D010895CF93DF93CF
:10039000EC018881882331F021960E94C001899167
:1003A0008823D9F7DF91CF9108956150E82FF0E0CD
:1003B000E352FF4F8081860F0E949B010895CF92E8
:1003C000DF92EF92FF920F931F93CF93DF93EC0195
:1003D0006B0116161706B4F48C01060F171F0F2EAB
:1003E000F6EBEF2EF1E0FF2EF02D899190E0B701B2
:1003F0004AE050E00E948304C7010E94C601C01772
:10040000D10799F7C4E1D0E0CC19DD090AF42196AF
:10041000D595C79564961C161D0654F400E010E0AF
:100420008CE10E949B010F5F1F4F0C171D07C4F347
:10043000DF91CF911F910F91FF90EF90DF90CF90C0
:10044000089581E00E949B0182E061E00E94D50155
:1004500082EE90E00E94C60181E00E949B0182E052
:1004600061E00E94D50187EF90E00E94C60183E021
:1004700061E00E94D50186E091E00E94C601809172
:10048000BA01843008F061C00E9400018093C60167
:100490008091C601E091BA01F0E0E454FE4F805330
:1004A00080838091C6010E94C0018091BA018F5F54
:1004B0008093BA01843040F381E290E06CEB71E00C
:1004C00044E050E00E94E30081E00E949B0182E052
:1004D00061E00E94D50182E191E00E94C60183E0C3
:1004E00061E00E94D50181E291E00E94C601109274
:1004F000BA010E9400018093C6018091C601E0917B
:10050000BA01F0E0E454FE4F805380838091C6012D
:100510000E94C00187EA91E60197F1F700C0000050
:100520008091BA018F5F8093BA01843010F385E225
:1005300090E06CEB71E044E050E00E94E30080E268
:1005400090E060E00E94D700089581E290E06CEBBB
:1005500071E044E050E00E94E30081E00E949B01D2
:1005600082E061E00E94D50182E191E00E94C60133
:1005700083E061E00E94D50181E291E00E94C60122
:100580001092BA01B6CFDF92EF92FF920F931F93B2
:10059000CF93DF93E82ECCEBD1E08E010C5F1F4FA1
:1005A0000E9400018093C6018091C60189938091C9
:1005B000C6010E94C00187EA91E60197F1F700C0E9
:1005C0000000C017D10761F710E004E0FF24DD242C
:1005D000D39401C00D2DC12FD0E0C7018C0F9D1FFA
:1005E0000E94B80090E0C454DE4F288130E02053D0
:1005F00030408217930731F41F5F133059F31430E2
:1006000050F301C000E0802FDF91CF911F910F9137
:10061000FF90EF90DF9008958033C9F581E00E944C
:100620009B0182E061E00E94D5018DE291E00E9491
:10063000C60183E061E00E94D50188E391E00E9459
:10064000C60187EA91E60197F1F700C0000081E258
:100650000E94C30290E08130910531F481E08093E3
:10066000C201A09AA89A0895009709F04BC081E0B2
:100670000E949B0182E061E00E94D50184E491E048
:100680000E94C60183E061E00E94D5010895809137
:10069000C6018133B9F581E00E949B0182E061E0EF
:1006A0000E94D50184E591E00E94C60183E061E0EB
:1006B0000E94D50188E391E00E94C60187EA91E695
:1006C0000197F1F700C0000085E20E94C30290E0AC
:1006D0008130910531F482E08093C201A19AA99AF8
:1006E0000895009779F481E00E949B0182E061E027
:1006F0000E94D5018FE591E00E94C60183E061E090
:100700000E94D5010895CF93DF93D82FC62F81E0A3
:100710000E949B0182E061E00E94D501C43349F44C
:100720008FE691E00E94C60183E791E00E94C60136
:100730000BC0C53349F48BE791E00E94C60183E703
:1007400091E00E94C6010BC085E891E00E94C601BD
:100750008C2F0E94C00183E791E00E94C6018D2F7B
:100760000E947E048FEF0E947E04813029F48BE882
:1007700091E00E94C60104C08EE891E00E94C6018B
:1007800083E061E00E94D50182E991E00E94C60108
:10079000C53341F484E061E00E94D50186EA91E02E
:1007A0000E94C601DF91CF910895813321F4862FF5
:1007B0000E947E0408958091C601823321F4862F21
:1007C0008F5F0E947E040895833351F1843330F4A7
:1007D000813351F0823309F04CC014C0843371F17D
:1007E000853309F046C038C081E161E30E9483038C
:1007F0000E9400018093C6018091C60161E20E94BF
:10080000D503089582E162E30E9483030E94000100
:100810008093C6018091C60163E20E94D5030895CA
:1008200083E163E30E9483030E9400018093C60179
:100830008091C60165E20E94D503089585E164E3D5
:100840000E9483030E9400018093C6018091C6012B
:1008500067E20E94D503089586E065E30E94830362
:100860000E9400018093C6018091C60169E20E9446
:10087000D5030895FC01DB01308181E090E0BC01EB
:1008800002C0660F771F4A95E2F7AB01862F962FBD
:10089000932B9083222339F0213041F48C914095A1
:1008A00048234C9308959C91892B8C930895FC01C7
:1008B000DB01308181E090E0BC0102C0660F771F50
:1008C0004A95E2F7AB01862F8095982F932390836A
:1008D000223031F0233039F48C91482B4C93089519
:1008E0009C9189238C93089587B3806B87BB8DB1CE
:1008F00081658DB90895BE9A6E9A08958FB9779BD8
:10090000FECF8FB10895FB019F01E8944230C4F0FF
:100910004532B4F44A3029F497FB1EF49095819542
:100920009F4F642F77270E94B404805D8A330CF0B8
:10093000895D8193CB010097A1F716F45DE2519395
:100940001082C9010C94A404DC01FC01672F719191
:100950007723E1F7329704C07C916D9370836291A5
:10096000AE17BF07C8F30895AA1BBB1B51E107C010
:10097000AA1FBB1FA617B70710F0A61BB70B881F2F
:10098000991F5A95A9F780959095BC01CD010895BE
:04099000F894FFCF09
:1009940077656C6C636F6D6520746F20736D617225
:1009A4007400686F6D652073797374656D00736589
:1009B4006C6563206D6F646500303A4F776E6572C5
:1009C40020313A477565737400313A524F4F4D31B7
:1009D40020323A524F4F4D3200333A524F4F4D333B
:1009E40020343A524F4F4D3400353A545620363A5B
:1009F4004149525F436F6E646974696F6E003738A2
:100A0400392F3435362A3132332D20303D2B80C0F6
:100A140094D46C6F67696E20666F72206669727316
:100A2400742074696D65005365742041646D696E4A
:100A340020506173730041646D696E20506173735B
:100A44003A0053657420477565737420506173735D
:100A540000677565737420506173733A004F574E85
:100A64004552206D6F646500456E74657220506157
:100A740073733A004F776E657220526F6E67205021
:100A8400617373004775657374206D6F6465004707
:100A94005545535420526F6E672050617373005450
:100AA400563A002053746174653A004149525F43D9
:100AB4004F4E443A00524F4F4D3A004F4E004F466E
:100AC40046004F4E3A312020204F46463A322020ED
:100AD4005245543A3000636F6E74726F6C207465C3
:060AE4006D703A330000C2
:00000001FF
