:100000000C942A000C9447000C9447000C94470071
:100010000C9447000C9447000C9447000C94470044
:100020000C9447000C9447000C9447000C94470034
:100030000C9447000C9447000C9447000C94470024
:100040000C9447000C9447000C9447000C94470014
:100050000C94470011241FBECFE5D8E0DEBFCDBF12
:1000600011E0A0E6B0E0E8E4FAE002C005900D92ED
:10007000A83CB107D9F711E0A8ECB1E001C01D928E
:10008000A83DB107E1F70E9449000C9422050C94A9
:100090000000EF92FF921F93CF93DF930E940F0413
:1000A00080E690E00E9433048FE996E8A1E0815059
:1000B0009040A040E1F700C0000082E063E00E94B1
:1000C000420482E790E00E94330481E00E94080429
:1000D00080E290E00E9425038F3F09F084C081E018
:1000E0000E94080482E061E00E9442048EE790E0F2
:1000F0000E94330483E061E00E9442048DE890E0B6
:100100000E9433048091C801843008F080C20E94AC
:100110006D038093D4018091D401E091C801F0E097
:10012000E353FE4F805380838091D4010E942D04BD
:100130008FE59AEEA0E081509040A040E1F700C02A
:1001400000008091C8018F5F8093C8018430F8F26D
:1001500081E290E06DEC71E044E050E00E945003D9
:1001600081E00E94080482E061E00E94420489E983
:1001700090E00E94330483E061E00E94420488EA38
:1001800090E00E9433041092C8010E946D03809396
:10019000D4018091D401E091C801F0E0E353FE4F17
:1001A000805380838091D4010E942D048FE59AEEC4
:1001B000A0E081509040A040E1F700C00000809195
:1001C000C8018F5F8093C8018430F8F285E290E027
:1001D0006DEC71E044E050E00E94500380E290E05A
:1001E00060E00E94440381E00E94080482E061E034
:1001F0000E94420484EB90E00E94330483E061E0BB
:100200000E9442048FEB90E00E9433048FE79AE152
:10021000A6E081509040A040E1F700C000000E949D
:100220006D038093D4018091D401803309F07BC0A9
:1002300081E00E94080482E061E00E9442048FECA9
:1002400090E00E94330483E061E00E9442048AED62
:1002500090E00E9433048FE79AE1A6E0815090403D
:10026000A040E1F700C000001092C8010E946D0399
:100270008093D4018091D401E091C801F0E0E35370
:10028000FE4F80838091D4010E942D048FE59AEE69
:10029000A0E081509040A040E1F700C000008091B4
:1002A000C8018F5F8093C801843000F310E00F2EE7
:1002B000F6EFEF2EF0E0FF2EF02DC12FD0E0CE01B3
:1002C00081960E94250390E0C353DE4F288130E0E1
:1002D000205330408217930721F41F5F133001F53C
:1002E00010C081E00E94080482E061E00E944204A4
:1002F00086EE90E00E94330483E061E00E944204B5
:1003000092C081E00E94080482E061E00E94420401
:10031000C7010E9433041092D301A09AA89ACDCFAE
:10032000143058F280C08091D401813309F07BC031
:1003300081E00E94080482E061E00E94420489E0BA
:1003400091E00E94330483E061E00E9442048AED60
:1003500090E00E9433048FE79AE1A6E0815090403C
:10036000A040E1F700C000001092C8010E946D0398
:100370008093D4018091D401E091C801F0E0E3536F
:10038000FE4F80838091D4010E942D048FE59AEE68
:10039000A0E081509040A040E1F700C000008091B3
:1003A000C8018F5F8093C801843000F310E00F2EE6
:1003B000F4E2EF2EF1E0FF2EF02DC12FD0E0CE01C0
:1003C00085960E94250390E0C353DE4F288130E0DC
:1003D000205330408217930721F41F5F133009F533
:1003E00010C081E00E94080482E061E00E944204A3
:1003F00084E191E00E94330483E061E00E944204C2
:1004000012C081E00E94080482E061E00E94420480
:10041000C7010E94330481E08093D301A19AA99A75
:10042000CCCF143050F281E00E94080481E061E0FA
:100430000E94420487E391E00E94330482E061E07D
:100440000E94420487E491E00E9433048091D3012A
:10045000882341F483E061E00E94420487E591E053
:100460000E9433040E946D038093D4018091D401D3
:10047000823379F1863309F455C0813309F0BFC066
:1004800081E00E94080482E061E00E9442048CE660
:1004900091E00E94330483E061E00E94420488E717
:1004A00091E00E9433040E946D038093D4018091F7
:1004B000D401813319F4A29AAA9AA1C08091D401DF
:1004C000823321F4A29A85B385BB99C08091D4016F
:1004D00096C081E00E94080482E061E00E9442042C
:1004E0008CE691E00E94330483E061E00E944204C4
:1004F00088E791E00E9433040E946D038093D40149
:100500008091D401813319F4A39AAB9A78C0809179
:10051000D401823321F4A39A85B385BB70C0809146
:10052000D4016DC081E00E94080482E061E00E9475
:1005300042048CE891E00E94330483E061E00E9471
:10054000420488E791E00E94330484E061E00E9465
:1005500042048CE991E00E9433040E946D03809371
:10056000D4018091D401813319F4A69AAE9A47C080
:100570008091D401823321F4A69A85B385BB3FC014
:100580008091D4018333D9F581E00E94080482E090
:1005900061E00E94420487EA91E00E9433040E94D5
:1005A0006D038093D4018091D4018093D101809117
:1005B000D4010E942D04AFE4B3EC1197F1F700C011
:1005C00000000E946D038093D4018091D401809338
:1005D000D2018091D4010E942D048FE493EC019705
:1005E000F1F700C000008091D101880F982F990F7A
:1005F000990F890F9091D201890F8093D50180E0E6
:1006000090E0DF91CF911F91FF90EF90089581E2EC
:1006100090E06DEC71E044E050E00E94500381E016
:100620000E94080482E061E00E94420489E990E0AF
:100630000E94330483E061E00E94420488EA90E073
:100640000E9433041092C801A0CDE199FECF9FBB58
:100650008EBBE09A8DB30895DC01E199FECF411580
:10066000510589F0E62FF72F20E030E0C9018A0F0D
:100670009B1F9FBB8EBBE09A8DB381932F5F3F4F33
:100680002417350799F70895E199FECF9FBB8EBBDC
:10069000E09A8DB3861719F06DBBE29AE19A08953E
:1006A000DC0141155105C1F0E62FF72F20E030E0C5
:1006B000E199FECFC9018A0F9B1F9FBB8EBBE09AB9
:1006C0009DB38191981719F08DBBE29AE19A2F5F43
:1006D0003F4F2417350761F7089540EF3FEF2FEEA6
:1006E0009FED6FEB5FE741BB32BB82B38F7082BB84
:1006F000000080B38F708093D6018F30B1F7E7E8A8
:10070000F3E13197F1F700C0000080B38F70809360
:10071000D6018F30A1F3EFE0F7E23197F1F700C097
:10072000000080B38F708093D6018F3041F322BBDD
:10073000000080B38F708093D6018F3019F0109233
:10074000D70124C092BB000080B38F708093D60184
:100750008F3021F081E08093D70118C062BB000088
:1007600080B38F708093D6018F3021F082E0809328
:10077000D7010CC052BB000080B38F708093D601AC
:100780008F3009F4B0CF83E08093D7018091D601F8
:100790008E3059F4E091D701F0E0EE0FFF1FEE0F1D
:1007A000FF1FED54FE4F808108958D3059F4E09184
:1007B000D701F0E0EE0FFF1FEE0FFF1FED54FE4FCD
:1007C000818108958B3059F4E091D701F0E0EE0F6C
:1007D000FF1FEE0FFF1FED54FE4F82810895E09141
:1007E000D701F0E0EE0FFF1FEE0FFF1FED54FE4F9D
:1007F00083810895C19A0000C19881E28A95F1F73A
:10080000000083ED90E30197F1F700C00000089528
:1008100098B3937F98BB8BBB0E94FA0308958FEF28
:100820008ABB87B38E6087BB87E893E10197F1F7B6
:1008300000C0000088E30E9408048EE00E940804C3
:1008400081E00E94080483EF91E00197F1F700C076
:10085000000086E00E9408040895C298C39A8BBBEA
:100860000E94FA030895CF93DF93EC0188818823D7
:1008700031F021960E942D0489918823D9F7DF91C8
:10088000CF9108956150E82FF0E0EE53FE4F808144
:10089000860F0E9408040895CF92DF92EF92FF9294
:1008A0000F931F93CF93DF93EC016B01161617067E
:1008B000B4F48C01060F171F0F2EF9ECEF2EF1E0A8
:1008C000FF2EF02D899190E0B7014AE050E00E94A0
:1008D000DD04C7010E943304C017D10799F7C4E1B2
:1008E000D0E0CC19DD090AF42196D595C795649618
:1008F0001C161D0654F400E010E08CE10E94080470
:100900000F5F1F4F0C171D07C4F3DF91CF911F918D
:100910000F91FF90EF90DF90CF900895FC01DB01E5
:10092000308181E090E0BC0102C0660F771F4A95DC
:10093000E2F7AB01862F962F932B9083222339F079
:10094000213041F48C91409548234C9308959C911B
:10095000892B8C930895FC01DB01308181E090E0CC
:10096000BC0102C0660F771F4A95E2F7AB01862FE4
:100970008095982F93239083223031F0233039F4DF
:100980008C91482B4C9308959C9189238C930895C6
:1009900087B3806B87BB8DB181658DB90895BE9A91
:1009A0006E9A08958FB9779BFECF8FB10895789492
:1009B0008CE982BF81E083BF0895FB019F01E89429
:1009C0004230C4F04532B4F44A3029F497FB1EF4A7
:1009D000909581959F4F642F77270E940E05805D2B
:1009E0008A330CF0895D8193CB010097A1F716F44F
:1009F0005DE251931082C9010C94FE04DC01FC01FC
:100A0000672F71917723E1F7329704C07C916D9342
:100A100070836291AE17BF07C8F30895AA1BBB1B72
:100A200051E107C0AA1FBB1FA617B70710F0A61BEE
:100A3000B70B881F991F5A95A9F780959095BC010F
:080A4000CD010895F894FFCFE9
:100A480077656C6C636F6D6520746F20736D617270
:100A58007400686F6D652073797374656D005365F4
:100A6800742041646D696E20506173730041646D38
:100A7800696E20506173733A005365742047756539
:100A880073742050617373006775657374205061C7
:100A980073733A0073656C6563206D6F646500302D
:100AA8003A4F776E657220313A4775657374004F17
:100AB800776E6572206D6F646500456E746572208F
:100AC800506173733A004F776E657220526F6E678C
:100AD8002050617373004F776E657220436F727296
:100AE8006563742050617373004775657374206D76
:100AF8006F646500477565737420526F6E67205088
:100B080061737300477565737420436F7272656310
:100B180074205061737300313A524F4F4D31203277
:100B28003A524F4F4D3200333A524F4F4D332034E3
:100B38003A524F4F4D3400353A545620363A4149CF
:100B4800525F436F6E646974696F6E00524F4F4D08
:100B58002053746174653A004F4E3A312020204F7B
:100B680046463A3220205245543A300041697220B4
:100B7800636F6E642053746174653A00333A536549
:100B8800742054656D7000656E7465722074656DAF
:100B9800703A003738392F3435362A3132332D2020
:080BA800303D2B80C094D40005
:00000001FF
