S0120000736D6172745F686F6D652E73726563E3
S11300000C942A000C9447000C9447000C9447006D
S11300100C9447000C9447000C9447000C94470040
S11300200C9447000C9447000C9447000C943F0533
S11300300C9447000C9447000C9447000C94470020
S11300400C9447000C9447000C9447000C94470010
S11300500C94470011241FBECFE5D8E0DEBFCDBF0E
S113006011E0A0E6B0E0E8E8FBE002C005900D92E4
S1130070A23CB107D9F711E0A2ECB1E001C01D9296
S1130080A83DB107E1F70E9449000C94C2050C9405
S11300900000EF92FF920F931F93CF93DF930E9480
S11300A0720480E290E00E9480028F3F09F095C0C4
S11300B081E00E94630382E061E00E949D0380E688
S11300C090E00E948E0383E061E00E949D038FE62E
S11300D090E00E948E038091C2019091C30184300C
S11300E091050CF0EDC10E94C8028093D201809169
S11300F0D201E091C201F091C301E253FE4F80535B
S113010080838091D2010E9488038FE59AEEA0E05B
S113011081509040A040E1F700C000008091C201EE
S11301209091C30101969093C3018093C2018430DE
S11301309105CCF281E290E06EEC71E044E050E095
S11301400E94AB0281E00E94630382E061E00E94AE
S11301509D038BE790E00E948E0383E061E00E94A0
S11301609D038AE890E00E948E031092C3011092CE
S1130170C2010E94C8028093D2018091D201E09111
S1130180C201F091C301E253FE4F805380838091FA
S1130190D2010E9488038FE59AEEA0E0815090403E
S11301A0A040E1F700C000008091C2019091C3011A
S11301B001969093C3018093C20184309105CCF2DF
S11301C085E290E06EEC71E044E050E00E94AB0206
S11301D080E290E060E00E949F0281E00E9463035D
S11301E082E061E00E949D0386E990E00E948E0314
S11301F083E061E00E949D0381EA90E00E948E0307
S11302008FE79AE1A6E081509040A040E1F700C05A
S113021000000E94C8028093D2018091D2018033F1
S113022009F07FC081E00E94630382E061E00E94E4
S11302309D0381EB90E00E948E0383E061E00E94C5
S11302409D038CEB90E00E948E038FE79AE1A6E079
S113025081509040A040E1F700C000001092C3011B
S11302601092C2010E94C8028093D2018091D201EF
S1130270E091C201F091C301E253FE4F808380916B
S1130280D2010E9488038FE59AEEA0E0815090404D
S1130290A040E1F700C000008091C2019091C30129
S11302A001969093C3018093C20184309105D4F2E6
S11302B00EEC11E0C1E2D0E00F2EF8ECEF2EF0E0EE
S11302C0FF2EF02DCE010E948002D8019D918D0158
S11302D0282F30E0892F90E0C0972817390789F438
S11302E081E00E94630382E061E00E949D03C701F4
S11302F00E948E03A09AA89A2196C532D10511F7BF
S113030093C081E00E94630382E061E00E949D0348
S11303108BED90E00E948E0383E061E00E949D03D8
S113032083C08091D201813309F07EC081E00E94B4
S1130330630382E061E00E949D038BEE90E00E94E3
S11303408E0383E061E00E949D038CEB90E00E94A9
S11303508E038FE79AE1A6E081509040A040E1F738
S113036000C000001092C3011092C2010E94C80292
S11303708093D2018091D201E091C201F091C30136
S1130380E253FE4F80838091D2010E9488038FE55F
S11303909AEEA0E081509040A040E1F700C0000038
S11303A08091C2019091C30101969093C3018093FF
S11303B0C20184309105D4F20EEC11E0C5E2D0E024
S11303C00F2EF6EFEF2EF0E0FF2EF02DCE010E945F
S11303D08002D8019D918D01282F30E0892F90E073
S11303E0C0972817390789F481E00E94630382E0EB
S11303F061E00E949D03C7010E948E03A19AA99AFD
S11304002196C932D10511F70FC081E00E94630320
S113041082E061E00E949D0389E091E00E948E03E6
S113042083E061E00E949D0381E00E94630382E017
S113043061E00E949D0389E191E00E948E0383E0C4
S113044061E00E949D0389E291E00E948E030E9474
S1130450C8028093D2018091D201813341F581E0B9
S11304600E94630382E061E00E949D0389E391E0BE
S11304700E948E0383E061E00E949D0385E491E085
S11304800E948E030E94C8028093D2018091D201FF
S1130490813319F4A29AAA9A0AC08091D2018233B4
S11304A021F4A29A85B385BB02C08091D20180E079
S11304B090E0DF91CF911F910F91FF90EF900895FD
S11304C081E290E06EEC71E044E050E00E94AB0207
S11304D081E00E94630382E061E00E949D038BE758
S11304E090E00E948E0383E061E00E949D038AE80D
S11304F090E00E948E031092C3011092C20139CE83
S1130500E199FECF9FBB8EBBE09A8DB30895DC01C9
S1130510E199FECF4115510589F0E62FF72F20E030
S113052030E0C9018A0F9B1F9FBB8EBBE09A8DB33D
S113053081932F5F3F4F2417350799F70895E19969
S1130540FECF9FBB8EBBE09A8DB3861719F06DBBAF
S1130550E29AE19A0895DC0141155105C1F0E62FB4
S1130560F72F20E030E0E199FECFC9018A0F9B1FED
S11305709FBB8EBBE09A9DB38191981719F08DBBF8
S1130580E29AE19A2F5F3F4F2417350761F70895E8
S113059040EF3FEF2FEE9FED6FEB5FE741BB32BBC8
S11305A082B38F7082BB000080B38F708093D301BD
S11305B08F30B1F7E7E8F3E13197F1F700C00000BD
S11305C080B38F708093D3018F30A1F3EFE0F7E213
S11305D03197F1F700C0000080B38F708093D3018E
S11305E08F3041F322BB000080B38F708093D3011E
S11305F08F3019F01092D40124C092BB000080B354
S11306008F708093D3018F3021F081E08093D401E7
S113061018C062BB000080B38F708093D3018F3009
S113062021F082E08093D4010CC052BB000080B35F
S11306308F708093D3018F3009F4B0CF83E080931F
S1130640D4018091D3018E3059F4E091D401F0E0CB
S1130650EE0FFF1FEE0FFF1FE75AFE4F8081089534
S11306608D3059F4E091D401F0E0EE0FFF1FEE0F4E
S1130670FF1FE75AFE4F818108958B3059F4E091B2
S1130680D401F0E0EE0FFF1FEE0FFF1FE75AFE4FFD
S113069082810895E091D401F0E0EE0FFF1FEE0F88
S11306A0FF1FE75AFE4F83810895C19A0000C19845
S11306B081E28A95F1F7000083ED90E30197F1F769
S11306C000C00000089598B3937F98BB8BBB0E9431
S11306D0550308958FEF8ABB87B38E6087BB87E885
S11306E093E10197F1F700C0000088E30E946303DF
S11306F08EE00E94630381E00E94630383EF91E034
S11307000197F1F700C0000086E00E94630308959A
S1130710C298C39A8BBB0E9455030895CF93DF936D
S1130720EC018881882331F021960E948803899105
S11307308823D9F7DF91CF9108956150E82FF0E035
S1130740E859FE4F8081860F0E9463030895CF927B
S1130750DF92EF92FF920F931F93CF93DF93EC01FD
S11307606B0116161706B4F48C01060F171F0F2E13
S1130770F4ECEF2EF1E0FF2EF02D899190E0B7011B
S11307804AE050E00E949105C7010E948E03C01701
S1130790D10799F7C4E1D0E0CC19DD090AF4219618
S11307A0D595C79564961C161D0654F400E010E018
S11307B08CE10E9463030F5F1F4F0C171D07C4F3E6
S11307C0DF91CF911F910F91FF90EF90DF90CF9029
S11307D00895FC01DB01308181E090E0BC0102C09E
S11307E0660F771F4A95E2F7AB01862F962F932B5E
S11307F09083222339F0213041F48C914095482391
S11308004C9308959C91892B8C930895FC01DB01F2
S1130810308181E090E0BC0102C0660F771F4A95E9
S1130820E2F7AB01862F8095982F93239083223093
S113083031F0233039F48C91482B4C9308959C91DA
S113084089238C930895A098A198A298A39AA49A16
S1130850A59AA69A0895AB9AAC9AAD9A0895AB98C6
S1130860AC98AD980895989B0BC0999B0BC09A9B2C
S11308700BC08091BF01813049F48093C801089571
S113088080E0089580E0089580E0089580E0089570
S11308908091C801813051F4AE9A8FE493EC0197B2
S11308A0F1F700C00000AE981092C80108950E94AC
S11308B06A038DE691E00E948E038FE996E8A1E039
S11308C081509040A040E1F700C0000082E063E066
S11308D00E949D038FE791E00E948E0381E00E94B5
S11308E0630308950E9423040E9457040E9477051D
S11308F008951092CD01AE9A8FE493EC0197F1F72D
S113090000C00000AE9882E063E00E949D038BE883
S113091091E00E948E038FE996E8A1E08150904017
S1130920A040E1F700C0000081E00E9463038AE96F
S113093091E00E948E0380EA91E00E948E0310925F
S1130940C9011092CA011092CB011092CC0181E02E
S113095067E00E949D030895CF93DF938091D601B1
S11309609091D70128E532E0B9010E947D0560939A
S1130970C9018091D6019091D701B9010E947D05EA
S1130980ECE3F0E0BF010E947D056093CA01809111
S1130990D6019091D701B9010E947D05BF010E9443
S11309A07D05CAE0D0E0BE010E947D056093CB01C5
S11309B08091D6019091D701B9010E947D05BF01B4
S11309C00E947D05BE010E947D058093CC0182E0DA
S11309D067E00E949D038091C901805D0E948803A5
S11309E08091CA01805D0E9488038AE30E94880383
S11309F08091CB01805D0E9488038091CC01805D51
S1130A000E948803DF91CF910895CF93DF93F894E8
S1130A1013BE1092BF0182E061E00E949D0388EA48
S1130A2091E00E948E038FEA91E00E948E030E945F
S1130A302F04AE9A8FE59AEEA0E081509040A0403A
S1130A40E1F700C00000AE9881E00E94630383E0F8
S1130A5061E00E949D0386EB91E00E948E03C6E054
S1130A60D0E08CE10E946303ABE4BDE11197F1F7A0
S1130A7000C000002197A9F7DF91CF9108951F923C
S1130A800F920FB60F9211242F933F934F935F93BE
S1130A906F937F938F939F93AF93BF93EF93FF9342
S1130AA085EA82BF8091D6019091D70101979093F6
S1130AB0D7018093D6018091D6019091D7010097F8
S1130AC019F00E94AC0402C00E940505FF91EF9149
S1130AD0BF91AF919F918F917F916F915F914F9152
S1130AE03F912F910F900FBE0F901F9018957894FF
S1130AF08CE982BF81E083BF0895AA1BBB1B51E12F
S1130B0007C0AA1FBB1FA617B70710F0A61BB70B79
S1130B10881F991F5A95A9F780959095BC01CD011E
S1130B200895FB019F01E8944230C4F04532B4F4C7
S1130B304A3029F497FB1EF4909581959F4F642FBA
S1130B4077270E947D05805D8A330CF0895D81934F
S1130B50CB010097A1F716F45DE251931082C9010D
S1130B600C94B205DC01FC01672F71917723E1F746
S1130B70329704C07C916D9370836291AE17BF0766
S10B0B80C8F30895F894FFCFB7
S1130B885365742041646D696E205061737300412C
S1130B98646D696E20506173733A0053657420471D
S1130BA87565737420506173730067756573742079
S1130BB8506173733A0073656C6563206D6F646587
S1130BC800303A4F776E657220313A477565737411
S1130BD8004F776E6572206D6F646500456E7465AD
S1130BE87220506173733A004F776E657220436FB9
S1130BF872726563742050617373004F776E657207
S1130C0820526F6E67205061737300477565737463
S1130C18206D6F646500477565737420436F727245
S1130C28656374205061737300477565737420524B
S1130C386F6E67205061737300313A524F4F4D31D4
S1130C4820323A524F4F4D3200333A524F4F4D33C0
S1130C5820343A524F4F4D3400524F4F4D20537465
S1130C686174653A004F4E3A312020204F46463A87
S1130C783220205245543A30003738392F3435362B
S1130C882A3132332D20303D2B80C094D477656CC3
S1130C986C636F6D6520746F20736D617274006886
S1130CA86F6D652073797374656D0074696D657211
S1130CB82063616E73656C65640074696D657200A8
S1130CC82030303A303020002020202020200030EE
S1130CD8303A3030200077656C6C646F6E650001C3
S1050CE8010005
S9030000FC
