S00D0000534C4156452E737265639C
S11300000C945A000C9477000C9477000C947700AD
S11300100C9477000C9477000C9477000C94770080
S11300200C9477000C9477000C94FA030C947700EA
S11300300C9477000C9477000C9477000C94770060
S11300400C9477000C9477000C9477000C94770050
S11300500C9477004D03630379033A03AC038F03D5
S1130060A5033A033A033A033A033A033A033A0339
S11300703A033A03C203D903C703DE03CC03E30301
S1130080D403EF03D103E8033A033A033A033A03F0
S11300903A033A033A033A033A033A033A033A0374
S11300A03A033A033A033A033A033A033A033A0364
S11300B03A03F40311241FBECFE5D8E0DEBFCDBF61
S11300C010E0A0E6B0E0E0E7FCE002C005900D928D
S11300D0A236B107D9F710E0A2E6B0E001C01D9244
S11300E0A636B107E1F70E9422030C9436060C945D
S11300F000003E9A3F9A379A329A319A0895369A76
S1130100349BFECF349A84B190E045B1342F20E083
S1130110822B932B0895823451F1833420F481345B
S113012009F07BC007C0833409F43EC0843409F06D
S113013074C057C0413069F42AB381E090E0AC0147
S113014002C0440F551F6A95E2F7BA01622B6ABBDD
S113015008952AB381E090E0AC0102C0440F551F1A
S11301606A95E2F7BA01609562236ABB089541304B
S113017069F427B381E090E0AC0102C0440F551F3D
S11301806A95E2F7BA01622B67BB089527B381E051
S113019090E0AC0102C0440F551F6A95E2F7BA0122
S11301A06095622367BB0895413069F424B381E00C
S11301B090E0AC0102C0440F551F6A95E2F7BA0102
S11301C0622B64BB089524B381E090E0AC0102C0CB
S11301D0440F551F6A95E2F7BA016095622364BB28
S11301E00895413069F421B381E090E0AC0102C08C
S11301F0440F551F6A95E2F7BA01622B61BB08955B
S113020021B381E090E0AC0102C0440F551F6A9510
S1130210E2F7BA016095622361BB0895823451F11B
S1130220833420F4813409F07BC007C0833409F49B
S11302303EC0843409F074C057C0413069F42BB314
S113024081E090E0AC0102C0440F551F6A95E2F7CB
S1130250BA01622B6BBB08952BB381E090E0AC0133
S113026002C0440F551F6A95E2F7BA0160956223F4
S11302706BBB0895413069F428B381E090E0AC0190
S113028002C0440F551F6A95E2F7BA01622B68BB9E
S1130290089528B381E090E0AC0102C0440F551FDB
S11302A06A95E2F7BA016095622368BB089541300C
S11302B069F425B381E090E0AC0102C0440F551FFE
S11302C06A95E2F7BA01622B65BB089525B381E014
S11302D090E0AC0102C0440F551F6A95E2F7BA01E1
S11302E06095622365BB0895413069F422B381E0CF
S11302F090E0AC0102C0440F551F6A95E2F7BA01C1
S1130300622B62BB089522B381E090E0AC0102C08D
S1130310440F551F6A95E2F7BA016095622362BBE8
S113032008958234F1F0833420F4813409F04FC00D
S113033006C0833441F1843409F049C036C029B37E
S113034081E090E0062E02C0880F991F0A94E2F71C
S113035030E08223932302C0959587956A95E2F74E
S1130360089526B381E090E0062E02C0880F991FFD
S11303700A94E2F730E08223932302C0959587958F
S11303806A95E2F7089523B381E090E0062E02C057
S1130390880F991F0A94E2F730E08223932302C066
S11303A0959587956A95E2F7089520B381E090E0EA
S11303B0062E02C0880F991F0A94E2F730E08223C8
S11303C0932302C0959587956A95E2F7089580E096
S11303D008958234B9F0833418F48134C9F505C022
S11303E08334E9F08434A1F527C02BB381E090E095
S11303F0AC0102C0440F551F6A95E2F7BA016227A7
S11304006BBB089528B381E090E0AC0102C0440FB7
S1130410551F6A95E2F7BA01622768BB089525B3B0
S113042081E090E0AC0102C0440F551F6A95E2F7E9
S1130430BA01622765BB089522B381E090E0AC0164
S113044002C0440F551F6A95E2F7BA01622762BBE6
S11304500895823461F0833418F4813469F405C05A
S1130460833439F0843441F406C06BBB089568BB0F
S1130470089565BB089562BB0895823479F083348E
S113048018F48134C9F405C0833469F08434A1F4C8
S11304900FC08BB3607F682B6BBB089588B3607FFC
S11304A0682B68BB089585B3607F682B65BB08958E
S11304B082B3607F682B62BB0895823471F0833409
S11304C018F48134A9F405C0833459F0843481F4D8
S11304D00CC08BB38F708BBB089588B38F7088BBAF
S11304E0089585B38F7085BB089582B38F7082BBE6
S11304F00895823479F1833420F4813409F08FC073
S113050007C0833409F448C0843409F088C066C045
S1130510413091F42AB381E090E0AC0102C0440F71
S1130520551F6A95E2F7BA01842F809582238ABB0E
S11305308BB3682B6BBB08952BB381E090E0AC01C7
S113054002C0440F551F6A95E2F7BA016095622311
S11305506BBB0895413091F427B381E090E0AC0186
S113056002C0440F551F6A95E2F7BA01842F8095A3
S1130570822387BB88B3682B68BB089528B381E0C6
S113058090E0AC0102C0440F551F6A95E2F7BA012E
S11305906095622368BB0895413091F424B381E0EF
S11305A090E0AC0102C0440F551F6A95E2F7BA010E
S11305B0842F8095822384BB85B3682B65BB089503
S11305C025B381E090E0AC0102C0440F551F6A9549
S11305D0E2F7BA016095622365BB0895413091F456
S11305E021B381E090E0AC0102C0440F551F6A952D
S11305F0E2F7BA01842F8095822381BB82B3682BF2
S113060062BB089522B381E090E0AC0102C0440FC4
S1130610551F6A95E2F7BA016095622362BB08959B
S113062041E00E948B00089541E00E940E0108956C
S113063040E00E940E0108950E94E90108950E947D
S1130640910108950E9479000E94600481E461E0B0
S11306500E94100381E462E00E94100381E463E0DD
S11306600E94100381E464E00E94100381E465E0C9
S11306700E9410038FEF0E9463048093650090E052
S1130680419780339105B0F7865D9F4FFC01EE0FD3
S1130690FF1F0590F491E02D099481E461E00E942C
S11306A01F03882319F41092650008C081E461E0F7
S11306B00E941F03813011F48093650080916500CE
S11306C00E946304D7CF81E462E00E941F03882361
S11306D019F41092650008C081E462E00E941F03CF
S11306E0813011F480936500809165000E94630459
S11306F0C1CF81E463E00E941F03882319F41092A0
S1130700650008C081E463E00E941F03813011F496
S113071080936500809165000E946304ABCF81E4FF
S113072065E00E941F03882319F41092650008C035
S113073081E465E00E941F03813011F48093650019
S1130740809165000E94630495CF8091600080933E
S113075065000E9463048ECF81E464E00E941F035D
S1130760882319F41092650008C081E464E00E94B3
S11307701F03813011F480936500809165000E940D
S1130780630478CF81E461E00E94140373CF81E4B1
S113079062E00E9414036ECF81E463E00E941403BC
S11307A069CF0E94680466CF81E464E00E94140368
S11307B061CF81E461E00E9418035CCF81E462E0D0
S11307C00E94180357CF81E463E00E94180352CFBC
S11307D00E947E0481E465E00E9418034BCF81E40B
S11307E064E00E94180346CF8FEF0E946304809355
S11307F0600040CF1F920F920FB60F9211242F93D7
S11308003F934F935F936F937F938F939F93AF9394
S1130810BF93EF93FF93809164008F5F8093640094
S1130820809164008A30A0F1109264000E947F00DD
S1130830BC0180E090E00E94450520E030E040E803
S11308405EE30E94D3050E941905DC01CB0190935D
S11308506300809362002091600080916200909117
S1130860630030E08217930728F481E465E00E9476
S113087018030EC020916000809162009091630083
S113088030E02817390720F481E465E00E9414035E
S1130890FF91EF91BF91AF919F918F917F916F9154
S11308A05F914F913F912F910F900FBE0F901F902A
S11308B0189587B3806B87BB8DB181658DB9089519
S11308C0BE9A6E9A08958FB9779BFECF8FB1089523
S11308D08EE48CBF83B7886083BF83B78F7B83BF6D
S11308E083B7816083BF83B78D7F83BF83B7846001
S11308F083BF789489B7826089BF089583B78E7F58
S113090083BF83B78D7F83BF83B78B7F83BF0895F6
S113091080E88CBF83B7806483BF83B7886083BF5C
S1130920789483B7806283BF89B7816089BF83B7B6
S1130930816083BF83B78D7F83BF83B7846083BFA8
S1130940089520E030E048EC52E40E94B10420E035
S113095030E040E853E40E94D3050E9419056CBFBF
S113096008950CD0E6C0DED040F0D5D030F021F4AC
S11309705F3F19F0C7C0511110C1CAC0EBD098F342
S11309809923C9F35523B1F3951B550BBB27AA270C
S113099062177307840738F09F5F5F4F220F331F7E
S11309A0441FAA1FA9F333D00E2E3AF0E0E830D04A
S11309B091505040E695001CCAF729D0FE2F27D04D
S11309C0660F771F881FBB1F261737074807AB071B
S11309D0B0E809F0BB0B802DBF01FF2793585F4F90
S11309E02AF09E3F510568F08DC0D7C05F3FECF3FD
S11309F0983EDCF3869577956795B795F7959F5F55
S1130A00C9F7880F911D9695879597F90895E1E0A8
S1130A10660F771F881FBB1F621773078407BA0707
S1130A2020F0621B730B840BBA0BEE1F88F7E09562
S1130A30089598D088F09F5790F0B92F9927B7510F
S1130A40A0F0D1F0660F771F881F991F1AF0BA958E
S1130A50C9F712C0B13081F09FD0B1E008959CC0B5
S1130A60672F782F8827B85F39F0B93FCCF3869584
S1130A7077956795B395D9F73EF4909580957095E1
S1130A8061957F4F8F4F9F4F0895E89409C097FB5E
S1130A903EF490958095709561957F4F8F4F9F4F51
S1130AA09923A9F0F92F96E9BB279395F695879595
S1130AB077956795B795F111F8CFFAF4BB0F11F458
S1130AC060FF1BC06F5F7F4F8F4F9F4F16C08823FF
S1130AD011F096E911C0772321F09EE8872F762F35
S1130AE005C0662371F096E8862F70E060E02AF076
S1130AF09A95660F771F881FDAF7880F9695879562
S1130B0097F9089597F99F6780E870E060E0089589
S1130B109FEF80EC089500240A9416161706180611
S1130B200906089500240A941216130614060506ED
S1130B300895092E0394000C11F4882352F0BB0F7E
S1130B4040F4BF2B11F460FF04C06F5F7F4F8F4FE1
S1130B509F4F089557FD9058440F551F59F05F3F1C
S1130B6071F04795880F97FB991F61F09F3F79F0CB
S1130B7087950895121613061406551FF2CF46954D
S1130B80F1DF08C0161617061806991FF1CF8695CF
S1130B907105610508940895E894BB2766277727B3
S1130BA0CB0197F908950BD0C4CFB5DF28F0BADF95
S1130BB018F0952309F0A6CFABCF1124EECFCADFEE
S1130BC0A0F3959FD1F3950F50E0551F629FF0015C
S1130BD0729FBB27F00DB11D639FAA27F00DB11DB5
S1130BE0AA1F649F6627B00DA11D661F829F22273E
S1130BF0B00DA11D621F739FB00DA11D621F839FC5
S1130C00A00D611D221F749F3327A00D611D231F9A
S1130C10849F600D211D822F762F6A2F11249F57E8
S1130C2050408AF0E1F088234AF0EE0FFF1FBB1F0B
S1130C30661F771F881F91505040A9F79E3F5105AA
S1130C4070F060CFAACF5F3FECF3983EDCF386955B
S1130C5077956795B795F795E7959F5FC1F7FE2B55
S1130C60880F911D9695879597F90895F894FFCF6D
S1050C70180066
S9030000FC
