S00D0000534C4156452E737265639C
S11300000C942A000C9447000C9447000C9447006D
S11300100C9447000C9447000C9447000C94470040
S11300200C9447000C9447000C94F3030C94470081
S11300300C9447000C9447000C9447000C94470020
S11300400C9447000C9447000C9447000C94470010
S11300500C94470011241FBECFE5D8E0DEBFCDBF0E
S113006010E0A0E6B0E0E6E6FCE002C005900D92E8
S1130070A036B107D9F710E0A0E6B0E001C01D92A8
S1130080A536B107E1F70E94F2020C9431060C94F4
S113009000003E9A3F9A379A329A319A0895369AD6
S11300A0349BFECF349A84B190E045B1342F20E0E4
S11300B0822B932B0895823451F1833420F48134BC
S11300C009F07BC007C0833409F43EC0843409F0CE
S11300D074C057C0413069F42AB381E090E0AC01A8
S11300E002C0440F551F6A95E2F7BA01622B6ABB3E
S11300F008952AB381E090E0AC0102C0440F551F7B
S11301006A95E2F7BA01609562236ABB08954130AB
S113011069F427B381E090E0AC0102C0440F551F9D
S11301206A95E2F7BA01622B67BB089527B381E0B1
S113013090E0AC0102C0440F551F6A95E2F7BA0182
S11301406095622367BB0895413069F424B381E06C
S113015090E0AC0102C0440F551F6A95E2F7BA0162
S1130160622B64BB089524B381E090E0AC0102C02B
S1130170440F551F6A95E2F7BA016095622364BB88
S11301800895413069F421B381E090E0AC0102C0EC
S1130190440F551F6A95E2F7BA01622B61BB0895BB
S11301A021B381E090E0AC0102C0440F551F6A9571
S11301B0E2F7BA016095622361BB0895823451F17C
S11301C0833420F4813409F07BC007C0833409F4FC
S11301D03EC0843409F074C057C0413069F42BB375
S11301E081E090E0AC0102C0440F551F6A95E2F72C
S11301F0BA01622B6BBB08952BB381E090E0AC0194
S113020002C0440F551F6A95E2F7BA016095622354
S11302106BBB0895413069F428B381E090E0AC01F0
S113022002C0440F551F6A95E2F7BA01622B68BBFE
S1130230089528B381E090E0AC0102C0440F551F3B
S11302406A95E2F7BA016095622368BB089541306C
S113025069F425B381E090E0AC0102C0440F551F5E
S11302606A95E2F7BA01622B65BB089525B381E074
S113027090E0AC0102C0440F551F6A95E2F7BA0141
S11302806095622365BB0895413069F422B381E02F
S113029090E0AC0102C0440F551F6A95E2F7BA0121
S11302A0622B62BB089522B381E090E0AC0102C0EE
S11302B0440F551F6A95E2F7BA016095622362BB49
S11302C008958234F1F0833420F4813409F04FC06E
S11302D006C0833441F1843409F049C036C029B3DF
S11302E081E090E0062E02C0880F991F0A94E2F77D
S11302F030E08223932302C0959587956A95E2F7AF
S1130300089526B381E090E0062E02C0880F991F5D
S11303100A94E2F730E08223932302C095958795EF
S11303206A95E2F7089523B381E090E0062E02C0B7
S1130330880F991F0A94E2F730E08223932302C0C6
S1130340959587956A95E2F7089520B381E090E04A
S1130350062E02C0880F991F0A94E2F730E0822328
S1130360932302C0959587956A95E2F7089580E0F6
S113037008958234B9F0833418F48134C9F505C082
S11303808334E9F08434A1F527C02BB381E090E0F5
S1130390AC0102C0440F551F6A95E2F7BA01622707
S11303A06BBB089528B381E090E0AC0102C0440F18
S11303B0551F6A95E2F7BA01622768BB089525B311
S11303C081E090E0AC0102C0440F551F6A95E2F74A
S11303D0BA01622765BB089522B381E090E0AC01C5
S11303E002C0440F551F6A95E2F7BA01622762BB47
S11303F00895823461F0833418F4813469F405C0BB
S1130400833439F0843441F406C06BBB089568BB6F
S1130410089565BB089562BB0895823479F08334EE
S113042018F48134C9F405C0833469F08434A1F428
S11304300FC08BB3607F682B6BBB089588B3607F5C
S1130440682B68BB089585B3607F682B65BB0895EE
S113045082B3607F682B62BB0895823471F0833469
S113046018F48134A9F405C0833459F0843481F438
S11304700CC08BB38F708BBB089588B38F7088BB0F
S1130480089585B38F7085BB089582B38F7082BB46
S11304900895823479F1833420F4813409F08FC0D3
S11304A007C0833409F448C0843409F088C066C0A6
S11304B0413091F42AB381E090E0AC0102C0440FD2
S11304C0551F6A95E2F7BA01842F809582238ABB6F
S11304D08BB3682B6BBB08952BB381E090E0AC0128
S11304E002C0440F551F6A95E2F7BA016095622372
S11304F06BBB0895413091F427B381E090E0AC01E7
S113050002C0440F551F6A95E2F7BA01842F809503
S1130510822387BB88B3682B68BB089528B381E026
S113052090E0AC0102C0440F551F6A95E2F7BA018E
S11305306095622368BB0895413091F424B381E04F
S113054090E0AC0102C0440F551F6A95E2F7BA016E
S1130550842F8095822384BB85B3682B65BB089563
S113056025B381E090E0AC0102C0440F551F6A95A9
S1130570E2F7BA016095622365BB0895413091F4B6
S113058021B381E090E0AC0102C0440F551F6A958D
S1130590E2F7BA01842F8095822381BB82B3682B52
S11305A062BB089522B381E090E0AC0102C0440F25
S11305B0551F6A95E2F7BA016095622362BB0895FC
S11305C041E00E945B00089541E00E94DE0008952E
S11305D040E00E94DE0008950E94B90108950E943F
S11305E0610108950E9449000E9463040E945B0413
S11305F081E461E00E94E00281E462E00E94E002A2
S113060081E463E00E94E00281E464E00E94E0028D
S113061081E465E00E94E0028FEF0E945E04809313
S11306206300833209F4ADC08432B8F4853109F42F
S113063088C0863148F4823109F441C0833109F419
S113064054C0813149F725C0813209F490C0823207
S113065008F092C0863101F75EC0823309F4A7C066
S1130660833348F4863209F491C0813309F49AC083
S1130670853291F692C0853309F4AAC0863318F402
S1130680833351F699C0863309F49BC0803421F634
S1130690A4C081E461E00E94EF02882319F410925F
S11306A0630008C081E461E00E94EF02813011F42C
S11306B080936300809163000E945E04ADCF81E467
S11306C062E00E94EF02882319F41092630008C0CC
S11306D081E462E00E94EF02813011F480936300B0
S11306E0809163000E945E0497CF81E463E00E94DE
S11306F0EF02882319F41092630008C081E463E0D8
S11307000E94EF02813011F48093630080916300B2
S11307100E945E0481CF81E465E00E94EF02882399
S113072019F41092630008C081E465E00E94EF02AE
S1130730813011F480936300809163000E945E0411
S11307406BCF81E464E00E94EF02882319F41092D5
S1130750630008C081E464E00E94EF02813011F478
S113076080936300809163000E945E0455CF81E40E
S113077061E00E94E40250CF81E462E00E94E4025E
S11307804BCF81E463E00E94E40246CF0E946304FD
S113079081E465E00E94E4023FCF81E464E00E94CA
S11307A0E4023ACF81E461E00E94E80235CF81E4BB
S11307B062E00E94E80230CF81E463E00E94E80234
S11307C02BCF0E94790481E465E00E94E80224CFE3
S11307D081E464E00E94E8021FCF8FEF0E945E0470
S11307E08093640019CF1F920F920FB60F921124B9
S11307F02F933F934F935F936F937F938F939F9325
S1130800AF93BF93EF93FF93809162008F5F8093C8
S11308106200809162008A30B0F1109262000E94FE
S11308204F00BC0180E090E00E94400520E030E0F1
S113083040E85EE30E94CE050E941405DC01CB0172
S1130840909361008093600020916000309161007A
S113085080916000909161002817390728F481E4A1
S113086065E00E94E8020FC02091600030916100B1
S113087080916000909161008217930720F481E4D5
S113088065E00E94E402FF91EF91BF91AF919F91C7
S11308908F917F916F915F914F913F912F910F9025
S11308A00FBE0F901F90189587B3806B87BB8DB1D7
S11308B081658DB90895BE9A6E9A08958FB9779B14
S11308C0FECF8FB108958EE48CBF83B7886083BF59
S11308D083B78F7B83BF83B7816083BF83B78D7FEB
S11308E083BF83B7846083BF789489B7826089BFEC
S11308F0089583B78E7F83BF83B78D7F83BF83B70C
S11309008B7F83BF089580E88CBF83B7806483BFE7
S113091083B7886083BF789483B7806283BF89B7C5
S1130920816089BF83B7816083BF83B78D7F83BFB5
S113093083B7846083BF089520E030E048EC52E43C
S11309400E94AC0420E030E040E853E40E94CE056D
S11309500E9414056CBF08950CD0E6C0DED040F0B0
S1130960D5D030F021F45F3F19F0C7C0511110C148
S1130970CAC0EBD098F39923C9F35523B1F3951B5F
S1130980550BBB27AA2762177307840738F09F5FAC
S11309905F4F220F331F441FAA1FA9F333D00E2E1B
S11309A03AF0E0E830D091505040E695001CCAF788
S11309B029D0FE2F27D0660F771F881FBB1F26174D
S11309C037074807AB07B0E809F0BB0B802DBF0120
S11309D0FF2793585F4F2AF09E3F510568F08DC062
S11309E0D7C05F3FECF3983EDCF386957795679527
S11309F0B795F7959F5FC9F7880F911D96958795D1
S1130A0097F90895E1E0660F771F881FBB1F6217EF
S1130A1073078407BA0720F0621B730B840BBA0BAD
S1130A20EE1F88F7E095089598D088F09F5790F0CE
S1130A30B92F9927B751A0F0D1F0660F771F881FFF
S1130A40991F1AF0BA95C9F712C0B13081F09FD03E
S1130A50B1E008959CC0672F782F8827B85F39F0DC
S1130A60B93FCCF3869577956795B395D9F73EF45E
S1130A7090958095709561957F4F8F4F9F4F089506
S1130A80E89409C097FB3EF4909580957095619524
S1130A907F4F8F4F9F4F9923A9F0F92F96E9BB27DA
S1130AA09395F695879577956795B795F111F8CF56
S1130AB0FAF4BB0F11F460FF1BC06F5F7F4F8F4FC1
S1130AC09F4F16C0882311F096E911C0772321F0B7
S1130AD09EE8872F762F05C0662371F096E8862F4F
S1130AE070E060E02AF09A95660F771F881FDAF7A6
S1130AF0880F9695879597F9089597F99F6780E8E9
S1130B0070E060E008959FEF80EC089500240A945B
S1130B101616170618060906089500240A941216D4
S1130B201306140605060895092E0394000C11F407
S1130B30882352F0BB0F40F4BF2B11F460FF04C0B4
S1130B406F5F7F4F8F4F9F4F089557FD9058440F0D
S1130B50551F59F05F3F71F04795880F97FB991F18
S1130B6061F09F3F79F087950895121613061406D5
S1130B70551FF2CF4695F1DF08C016161706180662
S1130B80991FF1CF86957105610508940895E8943D
S1130B90BB2766277727CB0197F908950BD0C4CFDD
S1130BA0B5DF28F0BADF18F0952309F0A6CFABCF54
S1130BB01124EECFCADFA0F3959FD1F3950F50E037
S1130BC0551F629FF001729FBB27F00DB11D639FFB
S1130BD0AA27F00DB11DAA1F649F6627B00DA11DA1
S1130BE0661F829F2227B00DA11D621F739FB00D47
S1130BF0A11D621F839FA00D611D221F749F3327B7
S1130C00A00D611D231F849F600D211D822F762F4F
S1130C106A2F11249F5750408AF0E1F088234AF04C
S1130C20EE0FFF1FBB1F661F771F881F9150504098
S1130C30A9F79E3F510570F060CFAACF5F3FECF358
S1130C40983EDCF3869577956795B795F795E79584
S1130C509F5FC1F7FE2B880F911D9695879597F995
S1090C600895F894FFCF93
S9030000FC
